{
  "contractName": "ImageNFT",
  "abi": [
    {
      "inputs": [
        {
          "internalType": "string",
          "name": "_name",
          "type": "string"
        },
        {
          "internalType": "string",
          "name": "_symbol",
          "type": "string"
        }
      ],
      "stateMutability": "nonpayable",
      "type": "constructor"
    },
    {
      "anonymous": false,
      "inputs": [
        {
          "indexed": true,
          "internalType": "address",
          "name": "owner",
          "type": "address"
        },
        {
          "indexed": true,
          "internalType": "address",
          "name": "approved",
          "type": "address"
        },
        {
          "indexed": true,
          "internalType": "uint256",
          "name": "tokenId",
          "type": "uint256"
        }
      ],
      "name": "Approval",
      "type": "event"
    },
    {
      "anonymous": false,
      "inputs": [
        {
          "indexed": true,
          "internalType": "address",
          "name": "owner",
          "type": "address"
        },
        {
          "indexed": true,
          "internalType": "address",
          "name": "operator",
          "type": "address"
        },
        {
          "indexed": false,
          "internalType": "bool",
          "name": "approved",
          "type": "bool"
        }
      ],
      "name": "ApprovalForAll",
      "type": "event"
    },
    {
      "anonymous": false,
      "inputs": [
        {
          "indexed": true,
          "internalType": "address",
          "name": "from",
          "type": "address"
        },
        {
          "indexed": true,
          "internalType": "address",
          "name": "to",
          "type": "address"
        },
        {
          "indexed": true,
          "internalType": "uint256",
          "name": "tokenId",
          "type": "uint256"
        }
      ],
      "name": "Transfer",
      "type": "event"
    },
    {
      "inputs": [
        {
          "internalType": "address",
          "name": "to",
          "type": "address"
        },
        {
          "internalType": "uint256",
          "name": "tokenId",
          "type": "uint256"
        }
      ],
      "name": "approve",
      "outputs": [],
      "stateMutability": "nonpayable",
      "type": "function"
    },
    {
      "inputs": [
        {
          "internalType": "address",
          "name": "owner",
          "type": "address"
        }
      ],
      "name": "balanceOf",
      "outputs": [
        {
          "internalType": "uint256",
          "name": "",
          "type": "uint256"
        }
      ],
      "stateMutability": "view",
      "type": "function",
      "constant": true
    },
    {
      "inputs": [
        {
          "internalType": "uint256",
          "name": "tokenId",
          "type": "uint256"
        }
      ],
      "name": "getApproved",
      "outputs": [
        {
          "internalType": "address",
          "name": "",
          "type": "address"
        }
      ],
      "stateMutability": "view",
      "type": "function",
      "constant": true
    },
    {
      "inputs": [
        {
          "internalType": "uint256",
          "name": "",
          "type": "uint256"
        }
      ],
      "name": "images",
      "outputs": [
        {
          "internalType": "string",
          "name": "name",
          "type": "string"
        },
        {
          "internalType": "string",
          "name": "url",
          "type": "string"
        }
      ],
      "stateMutability": "view",
      "type": "function",
      "constant": true
    },
    {
      "inputs": [
        {
          "internalType": "address",
          "name": "owner",
          "type": "address"
        },
        {
          "internalType": "address",
          "name": "operator",
          "type": "address"
        }
      ],
      "name": "isApprovedForAll",
      "outputs": [
        {
          "internalType": "bool",
          "name": "",
          "type": "bool"
        }
      ],
      "stateMutability": "view",
      "type": "function",
      "constant": true
    },
    {
      "inputs": [],
      "name": "name",
      "outputs": [
        {
          "internalType": "string",
          "name": "",
          "type": "string"
        }
      ],
      "stateMutability": "view",
      "type": "function",
      "constant": true
    },
    {
      "inputs": [
        {
          "internalType": "uint256",
          "name": "tokenId",
          "type": "uint256"
        }
      ],
      "name": "ownerOf",
      "outputs": [
        {
          "internalType": "address",
          "name": "",
          "type": "address"
        }
      ],
      "stateMutability": "view",
      "type": "function",
      "constant": true
    },
    {
      "inputs": [
        {
          "internalType": "address",
          "name": "from",
          "type": "address"
        },
        {
          "internalType": "address",
          "name": "to",
          "type": "address"
        },
        {
          "internalType": "uint256",
          "name": "tokenId",
          "type": "uint256"
        }
      ],
      "name": "safeTransferFrom",
      "outputs": [],
      "stateMutability": "nonpayable",
      "type": "function"
    },
    {
      "inputs": [
        {
          "internalType": "address",
          "name": "from",
          "type": "address"
        },
        {
          "internalType": "address",
          "name": "to",
          "type": "address"
        },
        {
          "internalType": "uint256",
          "name": "tokenId",
          "type": "uint256"
        },
        {
          "internalType": "bytes",
          "name": "_data",
          "type": "bytes"
        }
      ],
      "name": "safeTransferFrom",
      "outputs": [],
      "stateMutability": "nonpayable",
      "type": "function"
    },
    {
      "inputs": [
        {
          "internalType": "address",
          "name": "operator",
          "type": "address"
        },
        {
          "internalType": "bool",
          "name": "approved",
          "type": "bool"
        }
      ],
      "name": "setApprovalForAll",
      "outputs": [],
      "stateMutability": "nonpayable",
      "type": "function"
    },
    {
      "inputs": [
        {
          "internalType": "bytes4",
          "name": "interfaceId",
          "type": "bytes4"
        }
      ],
      "name": "supportsInterface",
      "outputs": [
        {
          "internalType": "bool",
          "name": "",
          "type": "bool"
        }
      ],
      "stateMutability": "view",
      "type": "function",
      "constant": true
    },
    {
      "inputs": [],
      "name": "symbol",
      "outputs": [
        {
          "internalType": "string",
          "name": "",
          "type": "string"
        }
      ],
      "stateMutability": "view",
      "type": "function",
      "constant": true
    },
    {
      "inputs": [
        {
          "internalType": "uint256",
          "name": "tokenId",
          "type": "uint256"
        }
      ],
      "name": "tokenURI",
      "outputs": [
        {
          "internalType": "string",
          "name": "",
          "type": "string"
        }
      ],
      "stateMutability": "view",
      "type": "function",
      "constant": true
    },
    {
      "inputs": [
        {
          "internalType": "address",
          "name": "from",
          "type": "address"
        },
        {
          "internalType": "address",
          "name": "to",
          "type": "address"
        },
        {
          "internalType": "uint256",
          "name": "tokenId",
          "type": "uint256"
        }
      ],
      "name": "transferFrom",
      "outputs": [],
      "stateMutability": "nonpayable",
      "type": "function"
    },
    {
      "inputs": [
        {
          "internalType": "address",
          "name": "_to",
          "type": "address"
        },
        {
          "internalType": "string",
          "name": "_name",
          "type": "string"
        },
        {
          "internalType": "string",
          "name": "_url",
          "type": "string"
        }
      ],
      "name": "mint",
      "outputs": [],
      "stateMutability": "nonpayable",
      "type": "function"
    }
  ],
  "bytecode": "0x60806040523480156200001157600080fd5b5060405162003289380380620032898339818101604052810190620000379190620001fa565b818181600090816200004a9190620004ca565b5080600190816200005c9190620004ca565b5050505050620005b1565b6000604051905090565b600080fd5b600080fd5b600080fd5b600080fd5b6000601f19601f8301169050919050565b7f4e487b7100000000000000000000000000000000000000000000000000000000600052604160045260246000fd5b620000d08262000085565b810181811067ffffffffffffffff82111715620000f257620000f162000096565b5b80604052505050565b60006200010762000067565b9050620001158282620000c5565b919050565b600067ffffffffffffffff82111562000138576200013762000096565b5b620001438262000085565b9050602081019050919050565b60005b838110156200017057808201518184015260208101905062000153565b60008484015250505050565b6000620001936200018d846200011a565b620000fb565b905082815260208101848484011115620001b257620001b162000080565b5b620001bf84828562000150565b509392505050565b600082601f830112620001df57620001de6200007b565b5b8151620001f18482602086016200017c565b91505092915050565b6000806040838503121562000214576200021362000071565b5b600083015167ffffffffffffffff81111562000235576200023462000076565b5b6200024385828601620001c7565b925050602083015167ffffffffffffffff81111562000267576200026662000076565b5b6200027585828601620001c7565b9150509250929050565b600081519050919050565b7f4e487b7100000000000000000000000000000000000000000000000000000000600052602260045260246000fd5b60006002820490506001821680620002d257607f821691505b602082108103620002e857620002e76200028a565b5b50919050565b60008190508160005260206000209050919050565b60006020601f8301049050919050565b600082821b905092915050565b600060088302620003527fffffffffffffffffffffffffffffffffffffffffffffffffffffffffffffffff8262000313565b6200035e868362000313565b95508019841693508086168417925050509392505050565b6000819050919050565b6000819050919050565b6000620003ab620003a56200039f8462000376565b62000380565b62000376565b9050919050565b6000819050919050565b620003c7836200038a565b620003df620003d682620003b2565b84845462000320565b825550505050565b600090565b620003f6620003e7565b62000403818484620003bc565b505050565b5b818110156200042b576200041f600082620003ec565b60018101905062000409565b5050565b601f8211156200047a576200044481620002ee565b6200044f8462000303565b810160208510156200045f578190505b620004776200046e8562000303565b83018262000408565b50505b505050565b600082821c905092915050565b60006200049f600019846008026200047f565b1980831691505092915050565b6000620004ba83836200048c565b9150826002028217905092915050565b620004d5826200027f565b67ffffffffffffffff811115620004f157620004f062000096565b5b620004fd8254620002b9565b6200050a8282856200042f565b600060209050601f8311600181146200054257600084156200052d578287015190505b620005398582620004ac565b865550620005a9565b601f1984166200055286620002ee565b60005b828110156200057c5784890151825560018201915060208501945060208101905062000555565b868310156200059c578489015162000598601f8916826200048c565b8355505b6001600288020188555050505b505050505050565b612cc880620005c16000396000f3fe608060405234801561001057600080fd5b50600436106100f55760003560e01c806370a0823111610097578063a22cb46511610066578063a22cb46514610297578063b88d4fde146102b3578063c87b56dd146102cf578063e985e9c5146102ff576100f5565b806370a08231146101fc578063848564821461022c57806395d89b411461025d578063990711901461027b576100f5565b8063095ea7b3116100d3578063095ea7b31461017857806323b872dd1461019457806342842e0e146101b05780636352211e146101cc576100f5565b806301ffc9a7146100fa57806306fdde031461012a578063081812fc14610148575b600080fd5b610114600480360381019061010f9190611897565b61032f565b60405161012191906118df565b60405180910390f35b610132610411565b60405161013f919061198a565b60405180910390f35b610162600480360381019061015d91906119e2565b6104a3565b60405161016f9190611a50565b60405180910390f35b610192600480360381019061018d9190611a97565b610528565b005b6101ae60048036038101906101a99190611ad7565b61063f565b005b6101ca60048036038101906101c59190611ad7565b61069f565b005b6101e660048036038101906101e191906119e2565b6106bf565b6040516101f39190611a50565b60405180910390f35b61021660048036038101906102119190611b2a565b610770565b6040516102239190611b66565b60405180910390f35b610246600480360381019061024191906119e2565b610827565b604051610254929190611b81565b60405180910390f35b61026561096b565b604051610272919061198a565b60405180910390f35b61029560048036038101906102909190611ced565b6109fd565b005b6102b160048036038101906102ac9190611da4565b610ad1565b005b6102cd60048036038101906102c89190611e85565b610ae7565b005b6102e960048036038101906102e491906119e2565b610b49565b6040516102f6919061198a565b60405180910390f35b61031960048036038101906103149190611f08565b610bf0565b60405161032691906118df565b60405180910390f35b60007f80ac58cd000000000000000000000000000000000000000000000000000000007bffffffffffffffffffffffffffffffffffffffffffffffffffffffff1916827bffffffffffffffffffffffffffffffffffffffffffffffffffffffff191614806103fa57507f5b5e139f000000000000000000000000000000000000000000000000000000007bffffffffffffffffffffffffffffffffffffffffffffffffffffffff1916827bffffffffffffffffffffffffffffffffffffffffffffffffffffffff1916145b8061040a575061040982610c84565b5b9050919050565b60606000805461042090611f77565b80601f016020809104026020016040519081016040528092919081815260200182805461044c90611f77565b80156104995780601f1061046e57610100808354040283529160200191610499565b820191906000526020600020905b81548152906001019060200180831161047c57829003601f168201915b5050505050905090565b60006104ae82610cee565b6104ed576040517f08c379a00000000000000000000000000000000000000000000000000000000081526004016104e49061201a565b60405180910390fd5b6004600083815260200190815260200160002060009054906101000a900473ffffffffffffffffffffffffffffffffffffffff169050919050565b6000610533826106bf565b90508073ffffffffffffffffffffffffffffffffffffffff168373ffffffffffffffffffffffffffffffffffffffff16036105a3576040517f08c379a000000000000000000000000000000000000000000000000000000000815260040161059a906120ac565b60405180910390fd5b8073ffffffffffffffffffffffffffffffffffffffff166105c2610d5a565b73ffffffffffffffffffffffffffffffffffffffff1614806105f157506105f0816105eb610d5a565b610bf0565b5b610630576040517f08c379a00000000000000000000000000000000000000000000000000000000081526004016106279061213e565b60405180910390fd5b61063a8383610d62565b505050565b61065061064a610d5a565b82610e1b565b61068f576040517f08c379a0000000000000000000000000000000000000000000000000000000008152600401610686906121d0565b60405180910390fd5b61069a838383610ef9565b505050565b6106ba83838360405180602001604052806000815250610ae7565b505050565b6000806002600084815260200190815260200160002060009054906101000a900473ffffffffffffffffffffffffffffffffffffffff169050600073ffffffffffffffffffffffffffffffffffffffff168173ffffffffffffffffffffffffffffffffffffffff1603610767576040517f08c379a000000000000000000000000000000000000000000000000000000000815260040161075e90612262565b60405180910390fd5b80915050919050565b60008073ffffffffffffffffffffffffffffffffffffffff168273ffffffffffffffffffffffffffffffffffffffff16036107e0576040517f08c379a00000000000000000000000000000000000000000000000000000000081526004016107d7906122f4565b60405180910390fd5b600360008373ffffffffffffffffffffffffffffffffffffffff1673ffffffffffffffffffffffffffffffffffffffff168152602001908152602001600020549050919050565b6006818154811061083757600080fd5b906000526020600020906002020160009150905080600001805461085a90611f77565b80601f016020809104026020016040519081016040528092919081815260200182805461088690611f77565b80156108d35780601f106108a8576101008083540402835291602001916108d3565b820191906000526020600020905b8154815290600101906020018083116108b657829003601f168201915b5050505050908060010180546108e890611f77565b80601f016020809104026020016040519081016040528092919081815260200182805461091490611f77565b80156109615780601f1061093657610100808354040283529160200191610961565b820191906000526020600020905b81548152906001019060200180831161094457829003601f168201915b5050505050905082565b60606001805461097a90611f77565b80601f01602080910402602001604051908101604052809291908181526020018280546109a690611f77565b80156109f35780601f106109c8576101008083540402835291602001916109f3565b820191906000526020600020905b8154815290600101906020018083116109d657829003601f168201915b5050505050905090565b600073ffffffffffffffffffffffffffffffffffffffff168373ffffffffffffffffffffffffffffffffffffffff1603610a3657600080fd5b60006006805490509050600660405180604001604052808581526020018481525090806001815401808255809150506001900390600052602060002090600202016000909190919091506000820151816000019081610a9591906124c0565b506020820151816001019081610aab91906124c0565b505050610ab781610cee565b15610ac157600080fd5b610acb848261115f565b50505050565b610ae3610adc610d5a565b8383611338565b5050565b610af8610af2610d5a565b83610e1b565b610b37576040517f08c379a0000000000000000000000000000000000000000000000000000000008152600401610b2e906121d0565b60405180910390fd5b610b43848484846114a4565b50505050565b6060610b5482610cee565b610b93576040517f08c379a0000000000000000000000000000000000000000000000000000000008152600401610b8a90612604565b60405180910390fd5b6000610b9d611500565b90506000815111610bbd5760405180602001604052806000815250610be8565b80610bc784611517565b604051602001610bd8929190612660565b6040516020818303038152906040525b915050919050565b6000600560008473ffffffffffffffffffffffffffffffffffffffff1673ffffffffffffffffffffffffffffffffffffffff16815260200190815260200160002060008373ffffffffffffffffffffffffffffffffffffffff1673ffffffffffffffffffffffffffffffffffffffff16815260200190815260200160002060009054906101000a900460ff16905092915050565b60007f01ffc9a7000000000000000000000000000000000000000000000000000000007bffffffffffffffffffffffffffffffffffffffffffffffffffffffff1916827bffffffffffffffffffffffffffffffffffffffffffffffffffffffff1916149050919050565b60008073ffffffffffffffffffffffffffffffffffffffff166002600084815260200190815260200160002060009054906101000a900473ffffffffffffffffffffffffffffffffffffffff1673ffffffffffffffffffffffffffffffffffffffff1614159050919050565b600033905090565b816004600083815260200190815260200160002060006101000a81548173ffffffffffffffffffffffffffffffffffffffff021916908373ffffffffffffffffffffffffffffffffffffffff160217905550808273ffffffffffffffffffffffffffffffffffffffff16610dd5836106bf565b73ffffffffffffffffffffffffffffffffffffffff167f8c5be1e5ebec7d5bd14f71427d1e84f3dd0314c0f7b2291e5b200ac8c7c3b92560405160405180910390a45050565b6000610e2682610cee565b610e65576040517f08c379a0000000000000000000000000000000000000000000000000000000008152600401610e5c906126f6565b60405180910390fd5b6000610e70836106bf565b90508073ffffffffffffffffffffffffffffffffffffffff168473ffffffffffffffffffffffffffffffffffffffff161480610eb25750610eb18185610bf0565b5b80610ef057508373ffffffffffffffffffffffffffffffffffffffff16610ed8846104a3565b73ffffffffffffffffffffffffffffffffffffffff16145b91505092915050565b8273ffffffffffffffffffffffffffffffffffffffff16610f19826106bf565b73ffffffffffffffffffffffffffffffffffffffff1614610f6f576040517f08c379a0000000000000000000000000000000000000000000000000000000008152600401610f6690612788565b60405180910390fd5b600073ffffffffffffffffffffffffffffffffffffffff168273ffffffffffffffffffffffffffffffffffffffff1603610fde576040517f08c379a0000000000000000000000000000000000000000000000000000000008152600401610fd59061281a565b60405180910390fd5b610fe9838383611677565b610ff4600082610d62565b6001600360008573ffffffffffffffffffffffffffffffffffffffff1673ffffffffffffffffffffffffffffffffffffffff16815260200190815260200160002060008282546110449190612869565b925050819055506001600360008473ffffffffffffffffffffffffffffffffffffffff1673ffffffffffffffffffffffffffffffffffffffff168152602001908152602001600020600082825461109b919061289d565b92505081905550816002600083815260200190815260200160002060006101000a81548173ffffffffffffffffffffffffffffffffffffffff021916908373ffffffffffffffffffffffffffffffffffffffff160217905550808273ffffffffffffffffffffffffffffffffffffffff168473ffffffffffffffffffffffffffffffffffffffff167fddf252ad1be2c89b69c2b068fc378daa952ba7f163c4a11628f55a4df523b3ef60405160405180910390a461115a83838361167c565b505050565b600073ffffffffffffffffffffffffffffffffffffffff168273ffffffffffffffffffffffffffffffffffffffff16036111ce576040517f08c379a00000000000000000000000000000000000000000000000000000000081526004016111c59061291d565b60405180910390fd5b6111d781610cee565b15611217576040517f08c379a000000000000000000000000000000000000000000000000000000000815260040161120e90612989565b60405180910390fd5b61122360008383611677565b6001600360008473ffffffffffffffffffffffffffffffffffffffff1673ffffffffffffffffffffffffffffffffffffffff1681526020019081526020016000206000828254611273919061289d565b92505081905550816002600083815260200190815260200160002060006101000a81548173ffffffffffffffffffffffffffffffffffffffff021916908373ffffffffffffffffffffffffffffffffffffffff160217905550808273ffffffffffffffffffffffffffffffffffffffff16600073ffffffffffffffffffffffffffffffffffffffff167fddf252ad1be2c89b69c2b068fc378daa952ba7f163c4a11628f55a4df523b3ef60405160405180910390a46113346000838361167c565b5050565b8173ffffffffffffffffffffffffffffffffffffffff168373ffffffffffffffffffffffffffffffffffffffff16036113a6576040517f08c379a000000000000000000000000000000000000000000000000000000000815260040161139d906129f5565b60405180910390fd5b80600560008573ffffffffffffffffffffffffffffffffffffffff1673ffffffffffffffffffffffffffffffffffffffff16815260200190815260200160002060008473ffffffffffffffffffffffffffffffffffffffff1673ffffffffffffffffffffffffffffffffffffffff16815260200190815260200160002060006101000a81548160ff0219169083151502179055508173ffffffffffffffffffffffffffffffffffffffff168373ffffffffffffffffffffffffffffffffffffffff167f17307eab39ab6107e8899845ad3d59bd9653f200f220920489ca2b5937696c318360405161149791906118df565b60405180910390a3505050565b6114af848484610ef9565b6114bb84848484611681565b6114fa576040517f08c379a00000000000000000000000000000000000000000000000000000000081526004016114f190612a87565b60405180910390fd5b50505050565b606060405180602001604052806000815250905090565b60606000820361155e576040518060400160405280600181526020017f30000000000000000000000000000000000000000000000000000000000000008152509050611672565b600082905060005b6000821461159057808061157990612aa7565b915050600a826115899190612b1e565b9150611566565b60008167ffffffffffffffff8111156115ac576115ab611bc2565b5b6040519080825280601f01601f1916602001820160405280156115de5781602001600182028036833780820191505090505b5090505b6000851461166b576001826115f79190612869565b9150600a856116069190612b4f565b6030611612919061289d565b60f81b81838151811061162857611627612b80565b5b60200101907effffffffffffffffffffffffffffffffffffffffffffffffffffffffffffff1916908160001a905350600a856116649190612b1e565b94506115e2565b8093505050505b919050565b505050565b505050565b60006116a28473ffffffffffffffffffffffffffffffffffffffff16611808565b156117fb578373ffffffffffffffffffffffffffffffffffffffff1663150b7a026116cb610d5a565b8786866040518563ffffffff1660e01b81526004016116ed9493929190612c04565b6020604051808303816000875af192505050801561172957506040513d601f19601f820116820180604052508101906117269190612c65565b60015b6117ab573d8060008114611759576040519150601f19603f3d011682016040523d82523d6000602084013e61175e565b606091505b5060008151036117a3576040517f08c379a000000000000000000000000000000000000000000000000000000000815260040161179a90612a87565b60405180910390fd5b805181602001fd5b63150b7a0260e01b7bffffffffffffffffffffffffffffffffffffffffffffffffffffffff1916817bffffffffffffffffffffffffffffffffffffffffffffffffffffffff191614915050611800565b600190505b949350505050565b6000808273ffffffffffffffffffffffffffffffffffffffff163b119050919050565b6000604051905090565b600080fd5b600080fd5b60007fffffffff0000000000000000000000000000000000000000000000000000000082169050919050565b6118748161183f565b811461187f57600080fd5b50565b6000813590506118918161186b565b92915050565b6000602082840312156118ad576118ac611835565b5b60006118bb84828501611882565b91505092915050565b60008115159050919050565b6118d9816118c4565b82525050565b60006020820190506118f460008301846118d0565b92915050565b600081519050919050565b600082825260208201905092915050565b60005b83811015611934578082015181840152602081019050611919565b60008484015250505050565b6000601f19601f8301169050919050565b600061195c826118fa565b6119668185611905565b9350611976818560208601611916565b61197f81611940565b840191505092915050565b600060208201905081810360008301526119a48184611951565b905092915050565b6000819050919050565b6119bf816119ac565b81146119ca57600080fd5b50565b6000813590506119dc816119b6565b92915050565b6000602082840312156119f8576119f7611835565b5b6000611a06848285016119cd565b91505092915050565b600073ffffffffffffffffffffffffffffffffffffffff82169050919050565b6000611a3a82611a0f565b9050919050565b611a4a81611a2f565b82525050565b6000602082019050611a656000830184611a41565b92915050565b611a7481611a2f565b8114611a7f57600080fd5b50565b600081359050611a9181611a6b565b92915050565b60008060408385031215611aae57611aad611835565b5b6000611abc85828601611a82565b9250506020611acd858286016119cd565b9150509250929050565b600080600060608486031215611af057611aef611835565b5b6000611afe86828701611a82565b9350506020611b0f86828701611a82565b9250506040611b20868287016119cd565b9150509250925092565b600060208284031215611b4057611b3f611835565b5b6000611b4e84828501611a82565b91505092915050565b611b60816119ac565b82525050565b6000602082019050611b7b6000830184611b57565b92915050565b60006040820190508181036000830152611b9b8185611951565b90508181036020830152611baf8184611951565b90509392505050565b600080fd5b600080fd5b7f4e487b7100000000000000000000000000000000000000000000000000000000600052604160045260246000fd5b611bfa82611940565b810181811067ffffffffffffffff82111715611c1957611c18611bc2565b5b80604052505050565b6000611c2c61182b565b9050611c388282611bf1565b919050565b600067ffffffffffffffff821115611c5857611c57611bc2565b5b611c6182611940565b9050602081019050919050565b82818337600083830152505050565b6000611c90611c8b84611c3d565b611c22565b905082815260208101848484011115611cac57611cab611bbd565b5b611cb7848285611c6e565b509392505050565b600082601f830112611cd457611cd3611bb8565b5b8135611ce4848260208601611c7d565b91505092915050565b600080600060608486031215611d0657611d05611835565b5b6000611d1486828701611a82565b935050602084013567ffffffffffffffff811115611d3557611d3461183a565b5b611d4186828701611cbf565b925050604084013567ffffffffffffffff811115611d6257611d6161183a565b5b611d6e86828701611cbf565b9150509250925092565b611d81816118c4565b8114611d8c57600080fd5b50565b600081359050611d9e81611d78565b92915050565b60008060408385031215611dbb57611dba611835565b5b6000611dc985828601611a82565b9250506020611dda85828601611d8f565b9150509250929050565b600067ffffffffffffffff821115611dff57611dfe611bc2565b5b611e0882611940565b9050602081019050919050565b6000611e28611e2384611de4565b611c22565b905082815260208101848484011115611e4457611e43611bbd565b5b611e4f848285611c6e565b509392505050565b600082601f830112611e6c57611e6b611bb8565b5b8135611e7c848260208601611e15565b91505092915050565b60008060008060808587031215611e9f57611e9e611835565b5b6000611ead87828801611a82565b9450506020611ebe87828801611a82565b9350506040611ecf878288016119cd565b925050606085013567ffffffffffffffff811115611ef057611eef61183a565b5b611efc87828801611e57565b91505092959194509250565b60008060408385031215611f1f57611f1e611835565b5b6000611f2d85828601611a82565b9250506020611f3e85828601611a82565b9150509250929050565b7f4e487b7100000000000000000000000000000000000000000000000000000000600052602260045260246000fd5b60006002820490506001821680611f8f57607f821691505b602082108103611fa257611fa1611f48565b5b50919050565b7f4552433732313a20617070726f76656420717565727920666f72206e6f6e657860008201527f697374656e7420746f6b656e0000000000000000000000000000000000000000602082015250565b6000612004602c83611905565b915061200f82611fa8565b604082019050919050565b6000602082019050818103600083015261203381611ff7565b9050919050565b7f4552433732313a20617070726f76616c20746f2063757272656e74206f776e6560008201527f7200000000000000000000000000000000000000000000000000000000000000602082015250565b6000612096602183611905565b91506120a18261203a565b604082019050919050565b600060208201905081810360008301526120c581612089565b9050919050565b7f4552433732313a20617070726f76652063616c6c6572206973206e6f74206f7760008201527f6e6572206e6f7220617070726f76656420666f7220616c6c0000000000000000602082015250565b6000612128603883611905565b9150612133826120cc565b604082019050919050565b600060208201905081810360008301526121578161211b565b9050919050565b7f4552433732313a207472616e736665722063616c6c6572206973206e6f74206f60008201527f776e6572206e6f7220617070726f766564000000000000000000000000000000602082015250565b60006121ba603183611905565b91506121c58261215e565b604082019050919050565b600060208201905081810360008301526121e9816121ad565b9050919050565b7f4552433732313a206f776e657220717565727920666f72206e6f6e657869737460008201527f656e7420746f6b656e0000000000000000000000000000000000000000000000602082015250565b600061224c602983611905565b9150612257826121f0565b604082019050919050565b6000602082019050818103600083015261227b8161223f565b9050919050565b7f4552433732313a2062616c616e636520717565727920666f7220746865207a6560008201527f726f206164647265737300000000000000000000000000000000000000000000602082015250565b60006122de602a83611905565b91506122e982612282565b604082019050919050565b6000602082019050818103600083015261230d816122d1565b9050919050565b60008190508160005260206000209050919050565b60006020601f8301049050919050565b600082821b905092915050565b6000600883026123767fffffffffffffffffffffffffffffffffffffffffffffffffffffffffffffffff82612339565b6123808683612339565b95508019841693508086168417925050509392505050565b6000819050919050565b60006123bd6123b86123b3846119ac565b612398565b6119ac565b9050919050565b6000819050919050565b6123d7836123a2565b6123eb6123e3826123c4565b848454612346565b825550505050565b600090565b6124006123f3565b61240b8184846123ce565b505050565b5b8181101561242f576124246000826123f8565b600181019050612411565b5050565b601f8211156124745761244581612314565b61244e84612329565b8101602085101561245d578190505b61247161246985612329565b830182612410565b50505b505050565b600082821c905092915050565b600061249760001984600802612479565b1980831691505092915050565b60006124b08383612486565b9150826002028217905092915050565b6124c9826118fa565b67ffffffffffffffff8111156124e2576124e1611bc2565b5b6124ec8254611f77565b6124f7828285612433565b600060209050601f83116001811461252a5760008415612518578287015190505b61252285826124a4565b86555061258a565b601f19841661253886612314565b60005b828110156125605784890151825560018201915060208501945060208101905061253b565b8683101561257d5784890151612579601f891682612486565b8355505b6001600288020188555050505b505050505050565b7f4552433732314d657461646174613a2055524920717565727920666f72206e6f60008201527f6e6578697374656e7420746f6b656e0000000000000000000000000000000000602082015250565b60006125ee602f83611905565b91506125f982612592565b604082019050919050565b6000602082019050818103600083015261261d816125e1565b9050919050565b600081905092915050565b600061263a826118fa565b6126448185612624565b9350612654818560208601611916565b80840191505092915050565b600061266c828561262f565b9150612678828461262f565b91508190509392505050565b7f4552433732313a206f70657261746f7220717565727920666f72206e6f6e657860008201527f697374656e7420746f6b656e0000000000000000000000000000000000000000602082015250565b60006126e0602c83611905565b91506126eb82612684565b604082019050919050565b6000602082019050818103600083015261270f816126d3565b9050919050565b7f4552433732313a207472616e736665722066726f6d20696e636f72726563742060008201527f6f776e6572000000000000000000000000000000000000000000000000000000602082015250565b6000612772602583611905565b915061277d82612716565b604082019050919050565b600060208201905081810360008301526127a181612765565b9050919050565b7f4552433732313a207472616e7366657220746f20746865207a65726f2061646460008201527f7265737300000000000000000000000000000000000000000000000000000000602082015250565b6000612804602483611905565b915061280f826127a8565b604082019050919050565b60006020820190508181036000830152612833816127f7565b9050919050565b7f4e487b7100000000000000000000000000000000000000000000000000000000600052601160045260246000fd5b6000612874826119ac565b915061287f836119ac565b92508282039050818111156128975761289661283a565b5b92915050565b60006128a8826119ac565b91506128b3836119ac565b92508282019050808211156128cb576128ca61283a565b5b92915050565b7f4552433732313a206d696e7420746f20746865207a65726f2061646472657373600082015250565b6000612907602083611905565b9150612912826128d1565b602082019050919050565b60006020820190508181036000830152612936816128fa565b9050919050565b7f4552433732313a20746f6b656e20616c7265616479206d696e74656400000000600082015250565b6000612973601c83611905565b915061297e8261293d565b602082019050919050565b600060208201905081810360008301526129a281612966565b9050919050565b7f4552433732313a20617070726f766520746f2063616c6c657200000000000000600082015250565b60006129df601983611905565b91506129ea826129a9565b602082019050919050565b60006020820190508181036000830152612a0e816129d2565b9050919050565b7f4552433732313a207472616e7366657220746f206e6f6e20455243373231526560008201527f63656976657220696d706c656d656e7465720000000000000000000000000000602082015250565b6000612a71603283611905565b9150612a7c82612a15565b604082019050919050565b60006020820190508181036000830152612aa081612a64565b9050919050565b6000612ab2826119ac565b91507fffffffffffffffffffffffffffffffffffffffffffffffffffffffffffffffff8203612ae457612ae361283a565b5b600182019050919050565b7f4e487b7100000000000000000000000000000000000000000000000000000000600052601260045260246000fd5b6000612b29826119ac565b9150612b34836119ac565b925082612b4457612b43612aef565b5b828204905092915050565b6000612b5a826119ac565b9150612b65836119ac565b925082612b7557612b74612aef565b5b828206905092915050565b7f4e487b7100000000000000000000000000000000000000000000000000000000600052603260045260246000fd5b600081519050919050565b600082825260208201905092915050565b6000612bd682612baf565b612be08185612bba565b9350612bf0818560208601611916565b612bf981611940565b840191505092915050565b6000608082019050612c196000830187611a41565b612c266020830186611a41565b612c336040830185611b57565b8181036060830152612c458184612bcb565b905095945050505050565b600081519050612c5f8161186b565b92915050565b600060208284031215612c7b57612c7a611835565b5b6000612c8984828501612c50565b9150509291505056fea264697066735822122039ff5f068f13b56125456fce90376c910841c45499f467b79f803e02a6f6dea564736f6c63430008110033",
  "immutableReferences": {},
  "source": "// SPDX-License-Identifier: MIT\npragma solidity ^0.8.17;\n\nimport \"openzeppelin-solidity/contracts/token/ERC721/ERC721.sol\";\n\ncontract ImageNFT is ERC721 {\n  struct Image {\n    string name;\n    string url;\n  }\n\n  Image[] public images;\n\n  constructor(string memory _name, string memory _symbol) ERC721 (_name, _symbol) {\n  }\n\n  function mint(address _to, string memory _name, string memory _url) public {\n    require(_to != address(0));\n    uint _tokenId = images.length;\n    images.push(Image(_name, _url));\n    require(!_exists(_tokenId));\n    _mint(_to,_tokenId);\n  }\n}",
  "sourcePath": "/Users/sdh/Study/nftStarter/simpleNftMinter/contracts/ImageNFT.sol",
  "compiler": {
    "name": "solc",
    "version": "0.8.17+commit.8df45f5f.Emscripten.clang"
  },
  "schemaVersion": "3.4.11",
  "updatedAt": "2022-12-07T08:19:01.361Z",
  "networkType": "ethereum",
  "devdoc": {
    "kind": "dev",
    "methods": {
      "approve(address,uint256)": {
        "details": "See {IERC721-approve}."
      },
      "balanceOf(address)": {
        "details": "See {IERC721-balanceOf}."
      },
      "getApproved(uint256)": {
        "details": "See {IERC721-getApproved}."
      },
      "isApprovedForAll(address,address)": {
        "details": "See {IERC721-isApprovedForAll}."
      },
      "name()": {
        "details": "See {IERC721Metadata-name}."
      },
      "ownerOf(uint256)": {
        "details": "See {IERC721-ownerOf}."
      },
      "safeTransferFrom(address,address,uint256)": {
        "details": "See {IERC721-safeTransferFrom}."
      },
      "safeTransferFrom(address,address,uint256,bytes)": {
        "details": "See {IERC721-safeTransferFrom}."
      },
      "setApprovalForAll(address,bool)": {
        "details": "See {IERC721-setApprovalForAll}."
      },
      "supportsInterface(bytes4)": {
        "details": "See {IERC165-supportsInterface}."
      },
      "symbol()": {
        "details": "See {IERC721Metadata-symbol}."
      },
      "tokenURI(uint256)": {
        "details": "See {IERC721Metadata-tokenURI}."
      },
      "transferFrom(address,address,uint256)": {
        "details": "See {IERC721-transferFrom}."
      }
    },
    "version": 1
  },
  "userdoc": {
    "kind": "user",
    "methods": {},
    "version": 1
  }
}